:020000040800F2
:100000000000012049020008033A0008053A0008F0
:10001000073A0008093A00080B3A000800000000FF
:10002000000000000000000000000000852600081D
:100030000D3A0008000000004D2700080F3A0008A4
:100040009102000891020008910200089102000844
:100050009102000891020008910200089102000834
:100060009102000891020008910200089102000824
:100070009102000891020008910200089102000814
:100080009102000891020008910200089102000804
:100090001D3A000891020008910200089102000830
:1000A00091020008910200089102000891020008E4
:1000B00091020008910200089102000891020008D4
:1000C00091020008910200089102000891020008C4
:1000D00091020008910200089102000891020008B4
:1000E00091020008910200089102000891020008A4
:1000F0009102000891020008910200089102000894
:100100009102000891020008910200089102000883
:100110009102000891020008910200089102000873
:100120009102000891020008910200089102000863
:1001300000000000000000000000000000000000BF
:1001400000000000000000000000000000000000AF
:10015000000000000000000000000000000000009F
:10016000000000000000000000000000000000008F
:10017000000000000000000000000000000000007F
:10018000000000000000000000000000000000006F
:10019000000000000000000000000000000000005F
:1001A000000000000000000000000000000000004F
:1001B000000000000000000000000000000000003F
:1001C000000000000000000000000000000000002F
:1001D000000000000000000000000000000000001F
:0401E0005FF8E0F1F3
:1001E40010B5054C237833B9044B13B10448AFF36D
:1001F40000800123237010BD640100200000000072
:10020400004A000808B5034B1BB103490348AFF388
:10021400008008BD0000000068010020004A0008BA
:1002240010F8012B11F8013B012A28BF9A42F7D09C
:10023400D01A7047034613F8012B002AFBD1181A71
:1002440001387047002103E00B4B5B5843500431E5
:100254000A480B4B42189A42F6D30A4A02E000239A
:1002640042F8043B084B9A42F9D303F0DBFB04F059
:100274004FFB03F067FB7047904C00080000002020
:10028400640100206401002050370020FEE710B50F
:10029400044601F0E7F84FF47A73B0FBF3F000F092
:1002A40087F8002221464FF0FF3000F041F800208B
:1002B40010BD0000064A08B51368032043F010037C
:1002C400136000F023F80F20FFF7E1FF002008BDC2
:1002D40000200240024A136801331360704700BFD4
:1002E40080010020014B1868704700BF8001002086
:1002F40013B50190FFF7F6FF0446FFF7F3FF019BE8
:10030400001B9842F9D302B010BD0000074A000256
:10031400D36800F4E06023F4E0631B041B0C43F097
:10032400BF6343F400330343D360704700ED00E040
:10033400174B30B5DB68C3F30223C3F107041D1D5B
:10034400042C28BF0424062D4FF0010505FA04F4FB
:1003540004F1FF348CBF033B00230C409C4005FA9E
:1003640003F3013B1A40002842EA04024FEA021256
:10037400AFBF00F16040074B00F00F00D2B2A5BF41
:10038400D2B200F561401A5480F8002330BD00BF9A
:1003940000ED00E014ED00E04209012300F01F002D
:1003A40003FA00F0014B43F82200704700E100E03B
:1003B4000138B0F1807F0AD2064B074AF021586019
:1003C40082F823100020072298601A6070470120E9
:1003D400704700BF10E000E000ED00E0044B04288B
:1003E4001A680CBF42F0040222F004021A6070473B
:1003F40010E000E02DE9F74F002426466A4BDFF8B1
:10040400B0E1DFF8B0C101220D68B24032EA05055F
:1004140040F0C2804D68122D2BD00ED8022D25D06D
:1004240004D84DB3012D30D1CC682EE0032D1BD060
:10043400112D2AD1CC68043427E065451CD006D898
:10044400DFF87481454517D008F5803809E0DFF8F6
:100454006C81454510D008F5803845450CD0A8F589
:100464008018454511D107E000240EE0CC6808341B
:100474000BE0CC680C3408E08C682CB1012C0CBF68
:1004840002614261082400E00424FF2A97BF8346E6
:10049400A6F10805D0F80090B50084BFD0F8049008
:1004A400AD004FF00F0808FA05FA29EA0A0904FA20
:1004B40005F588BF00F1040B49EA0505CBF80050A7
:1004C400D1F8049019F0805F66D0384D374FAD698C
:1004D40006F0030A45F00105BD61BD694FEA8A0AC9
:1004E40005F001050195019D26F0030505F1804500
:1004F40005F58035D5F808B0A7F5843708FA0AF869
:10050400B8422BEA080816D007F58067B84215D020
:1005140007F58067B84214D007F58067B84213D056
:1005240007F58067B84212D070450CBF4FF0050B39
:100534004FF0060B0DE04FF0000B0AE04FF0010BFB
:1005440007E04FF0020B04E04FF0030B01E04FF023
:10055400040B0BFA0AFA4AEA080AC5F808A01D684F
:1005640019F4803F14BF154395431D605D6819F469
:10057400003F14BF154395435D609D6819F4801FC7
:1005840014BF154395439D60DD6819F4001F14BF23
:100594002A4325EA0202DA600136102E7FF433AFD3
:1005A40003B0BDE8F08F00BF00040140001002401A
:1005B400001C014000002110000011100000311047
:1005C40002B9090401617047C3685940C1607047AA
:1005D4002DE9F041044686B000285FD090F8E93355
:1005E40003F0FF021BB980F8E82303F0B1FA2546B3
:1005F4006E46032355F8100B84F8E93300F0D2FF5C
:100604000FCD0FC62B68271D336097E80E002068B6
:1006140000F0B8FF0021206800F0CEFF002123463F
:100624002246084604F11005012682F82810918616
:1006340001310F2982F8296082F82B009063D0637E
:10064400106402F12002F0D10022114683F808223E
:100654009A8601320F2A83F8091283F80B12C3F821
:100664001812C3F81C12C3F820124FF0000803F14B
:100674002003EBD16E460FCD0FC62B68336097E88D
:100684000E00206800F09AFF012384F8248020687B
:1006940084F8E93301F04BFA404600E0012006B04B
:1006A400BDE8F08190F8E83310B5012B04460ED074
:1006B400012180F8E81303F072FB206801F035FA99
:1006C400206800F066FF002084F8E80310BD0220D3
:1006D40010BD90F8E82310B5012A04460BD001227E
:1006E40080F8E82384F82410006801F018FA002048
:1006F40084F8E80310BD022010BD38B5044648B2A2
:10070400002801F07F05B5BF04EB451104EB41114E
:10071400283101F50271C00F0D704870CB7094F848
:10072400E8330A61012B09D0012384F8E8332068F7
:1007340000F058FF002084F8E80338BD022038BDDB
:100744004BB2002B01F07F02B5BF00EB421100EB6E
:100754004111283101F50271DB0F10B50A704B709D
:1007640090F8E8330446012B09D0012380F8E833DC
:10077400006801F0A9F8002084F8E80310BD022005
:1007840010BD70B5044601F07F0670012518C5F848
:1007940020320023C5F81C22C5F8243285F809321A
:1007A40085F8086294F8E833012B0CD0012300F596
:1007B4000270211884F8E833206801F0D1F9002090
:1007C40084F8E80370BD022070BD01F07F0100EBE6
:1007D4004110B0F82402704770B5044601F07F065A
:1007E400700125182B6400236B640123EA6385F8E8
:1007F400293085F8286094F8E8239A420AD02830F2
:10080400211884F8E833206801F0AAF9002084F85C
:10081400E80370BD022070BD2DE9F3410446006871
:1008240001F087F9000416D4206801F082F941052B
:1008340040F1DB8122682046B2F8443023F480631F
:100844001B041B0CA2F8443003F0B9F90021204624
:10085400FFF73FFFC9E10023ADF8043004F57B77CF
:10086400ADF806302068B0F844309BB2ADF80430DF
:100874001B04D9D5BDF8045015F00F0540F0B58020
:10088400BDF80410038801F0100189B259BB23F4A8
:10089400E14323F070031B041B0C0380B0F85030B9
:1008A40094F828209BB203EBC20300EB4300D0F87A
:1008B4000434E26BC3F3090363641344E363204623
:1008C40003F072F994F82430002BCBD0226C002A68
:1008D400C8D194F82430216843F08003A1F84C3047
:1008E40084F82420BEE79BB2ADF80630BDF806308C
:1008F4001A051ED5B0F8503094F808229BB203EBC9
:10090400C20300EB4303D3F80C34B4F80C22C3F352
:100914000903C4F82432394601F0F2F9226820466A
:10092400138823F070031B051B0D138003F02EF9AD
:1009340098E7BDF806301B0494D5038823F07003B0
:100944001B051B0D0380B0F8503094F808229BB2AD
:1009540003EBC20300EB4303D3F80C34C3F30903E2
:10096400C4F8243263B1B4F80C22D4F81C1201F098
:10097400C7F9D4F81C22D4F824321344C4F81C3226
:100984000021204603F008F92268D4F81852B2F87E
:1009940050103E2D89B201F1060102F580600BD999
:1009A400C5F34F13EE0604BF03F1FF339BB26FEAA6
:1009B400C3636FEA534306E0C5F34F03ED0744BF37
:1009C40001339BB29B029BB240F81130138823F48D
:1009D400804323F070031B041B0C83F4405343F443
:1009E400004343F0800313803CE730F825309BB28A
:1009F400ADF80630BDF80630190477D530F8253047
:100A04004FEA451823F070031B051B0D20F8253011
:100A140004EB080191F81232ABB9B0F8503091F8F8
:100A240008229BB203EBC20300EB4303D3F80C642C
:100A3400C6F30906DEB3B1F80C223346D1F81C1212
:100A440001F05EF933E091F8083230F82320DB003E
:100A540012F4804FB0F8502092B2134400EB4303D9
:100A640008D0D3F80464C6F309067EB13346B1F85E
:100A74000E2207E0D3F80C64C6F3090636B13346F8
:100A8400B1F81022D1F81C1201F03AF904EB080372
:100A940093F80812226832F8213023F0F0031B0582
:100AA4001B0D43F4004343F0C00322F8213004EB50
:100AB4000801D1F82432D1F81C223344C1F824327D
:100AC400D1F820323244C1F81C221BB1D1F81802EB
:100AD400864206D2A04498F80812204603F05CF837
:100AE40004E091F808122046FFF74BFEBDF80630EB
:100AF4001A067FF5B7AE20686E0130F82530A119CB
:100B040023F4E14323F070031B041B0C20F825306D
:100B140091F832300235B3B9B0F8503091F828204A
:100B24009BB203EBC20300EB4303D3F8043404EB9E
:100B34004515C3F309036B60002B38D08A8DC96B4C
:100B440000F0FDFF33E091F8283030F82320DB007B
:100B540012F0400FB0F8502092B2134400EB43035C
:100B640009D0D3F8043404EB4515C3F309036B60CF
:100B74006BB1CA8D08E0D3F80C3404EB4515C3F30C
:100B840009036B601BB10A8EC96B00F0D8FFA3196F
:100B940093F82810226832F8213023F0F0031B0563
:100BA4001B0D43F4404343F0800322F821302068B6
:100BB400A119B0F8502091F8283092B202EBC30387
:100BC40000EB4303D3F80424CB6BC2F309024A6459
:100BD4001A440B6CCA63204691F8281013B902F02A
:100BE400E3FF3FE6FFF7F8FD3CE6206800F0A1FFD5
:100BF400470408D52268B2F8443023F480431B0428
:100C04001B0CA2F84430206800F093FF860408D53A
:100C14002268B2F8443023F400531B041B0CA2F8DE
:100C24004430206800F085FFC50418D522682046AA
:100C3400B2F8403023F004031B041B0CA2F840302C
:100C44004FF43D43A2F8403002F0D6FF2268B2F8D8
:100C5400443023F480531B041B0CA2F84430206856
:100C640000F067FF00051DD52068B0F8443023F478
:100C740000631B041B0CA0F84430B0F840309BB256
:100C840043F00803A0F84030B0F840309BB243F082
:100C94000403A0F8403000F04CFFC10402D4204605
:100CA40002F09AFF206800F044FF82050BD5226809
:100CB4002046B2F8443023F400731B041B0CA2F842
:100CC400443002F078FF206800F033FFC30508D5F4
:100CD4002268B2F8443023F480731B041B0CA2F87E
:100CE400443002B0BDE8F08138B54BB2002B01F0BE
:100CF4007F05B5BF00EB451100EB4111283101F52B
:100D040002710122DB0FEDB28A700D704B7090F806
:100D1400E833044693420ED080F8E823006800F0DC
:100D24008BFE25B904F57B71206800F006FF0020D6
:100D340084F8E80338BD022038BD38B54BB2002B27
:100D440001F07F02B5BF00EB421100EB41112831E5
:100D540001F50271DB0F00248C700A704B7090F85F
:100D6400E8330546012B09D0012380F8E8330068F5
:100D740000F093FE85F8E843204638BD022038BDD4
:100D840011F0800F1BBF01F07F0100EB411000EB5D
:100D94004110283008BF00F5027012B982728380B6
:100DA40004E00122C3801B0C82720381002070477F
:100DB40003682DE9F743DC07054603D42B6898073D
:100DC40073D4F2E0B94C636803F00C03042B07D02E
:100DD400636803F00C03082B16D16368D90313D599
:100DE4004FF4003393FAA3F2226893FAA3F3B3FA0D
:100DF40083F303F01F0322FA03F3DA07DED56B68EB
:100E0400002BDBD101202DE26B68B3F5803F15D0B8
:100E14006BB923684FF4003623F4803323602368CE
:100E240023F480232360FFF75DFA07462FE0B3F530
:100E3400A02F236806D143F480232360236843F45E
:100E4400803305E023F480332360236823F4802374
:100E54002360FFF747FA07464FF4003696FAA6F3E5
:100E6400226896FAA6F3B3FA83F303F01F0322FA77
:100E740003F3DB07A2D4FFF735FAC01B6428EDD9CE
:100E84000320EFE1FFF72EFAC01B6428F8D896FA86
:100E9400A6F3226896FAA6F3B3FA83F303F01F03CA
:100EA40022FA03F3D807EDD488E7804C636813F083
:100EB4000C0F07D0636803F00C03082B21D163687F
:100EC400D9031ED4022393FAA3F2226893FAA3F35C
:100ED400B3FA83F303F01F0322FA03F3DA0702D50C
:100EE4002B69012B8ED12368F82292FAA2F2B2FA6E
:100EF40082F2696923F0F80301FA02F213432360D2
:100F040053E02A6901237AB393FAA3F2B2FA82F284
:100F1400920002F1844202F584021360FFF7E2F9C1
:100F24000746022696FAA6F36048226896FAA6F3C4
:100F3400B3FA83F303F01F0322FA03F3DB0705D4A8
:100F4400FFF7D0F9C01B0228ECD999E70368F8220F
:100F540092FAA2F2B2FA82F2696923F0F80301FA72
:100F640002F21343036020E093FAA3F3B3FA83F38A
:100F74009B0003F1844303F584031A60FFF7B2F97D
:100F84000746022696FAA6F3226896FAA6F3B3FA5F
:100F940083F303F01F0322FA03F3D90705D5FFF700
:100FA400A1F9C01B0228EDD96AE72B681A0746D5B8
:100FB400AA693E4C01233E4912B393FAA3F2B2FA52
:100FC40082F241F82230FFF78DF90746022696FA9D
:100FD400A6F396FAA6F3626A96FAA6F3B3FA83F333
:100FE40003F01F0322FA03F3DB0705D4FFF77AF9B2
:100FF400C01B0228EBD943E70120FFF779F91EE073
:1010040093FAA3F3B3FA83F341F82320FFF76AF9C1
:101014000746022696FAA6F396FAA6F3626A96FAA9
:10102400A6F3B3FA83F303F01F0322FA03F3D807FA
:1010340005D5FFF757F9C01B0228EBD920E72B6829
:10104400590704D4EA69002A40F08180D8E0174C9B
:10105400184EE36943F08053E361E36903F080537E
:101064000193019B336843F480733360FFF73AF9CB
:1010740007463368DA0505D4FFF734F9C01B642842
:10108400F7D9FDE6EB68012B1CD0ABB9236A022625
:1010940023F001032362236A374623F00403236207
:1010A400FFF720F941F28839804648E000100240F9
:1010B4008004424200700040052B236A06D143F0AD
:1010C40004032362236A43F0010305E023F00103D0
:1010D4002362236A23F004032362FFF703F9022641
:1010E4008146B04641F2883796FAA6F396FAA6F3FB
:1010F4000BB1226A00E0626A98FAA8F3B3FA83F3A8
:1011040003F01F0322FA03F3DB079BD4FFF7EAF88B
:10111400C9EB0000B842E7D9B2E6626A97FAA7F3CE
:10112400B3FA83F303F01F0322FA03F3D80789D534
:10113400FFF7D8F8C8EB000048453FF6A1AE96FA91
:10114400A6F396FAA6F3002BE7D0226AE6E7474C0B
:10115400636803F00C03082B3FF454AE022A4FF0EB
:1011640080735CD193FAA3F3B3FA83F39B0003F186
:10117400844303F5840300221A60FFF7B3F8804622
:101184004FF0007696FAA6F3384F226896FAA6F343
:10119400B3FA83F303F01F0322FA03F3D90731D41C
:1011A4002E6AB6F5803F05D1796821F40030A9682C
:1011B4000143796063686A6A23F474133243134306
:1011C40063604FF0807393FAA3F3B3FA83F39B0045
:1011D40003F1844303F5840301221A60FFF782F8C4
:1011E40006464FF0007595FAA5F3226895FAA5F323
:1011F400B3FA83F303F01F0322FA03F3DA0708D5E3
:1012040000202FE0FFF76EF8C8EB00000228B9D9E0
:1012140036E6FFF767F8801B0228E4D930E693FA34
:10122400A3F3B3FA83F39B0003F1844303F584032C
:1012340000221A60FFF756F806464FF0007595FA3B
:10124400A5F3226895FAA5F3B3FA83F303F01F0319
:1012540022FA03F3DB07D3D5FFF744F8801B0228F7
:10126400EDD90DE603B0BDE8F08300BF00100240E5
:101274001F4B70B503F110052E4686B002AC224612
:1012840018685968083303C2AB421446F7D133884F
:10129400184CADF80430606800F00C03082B24D11E
:1012A4004FF4701393FAA3F3B3FA83F300F47012B8
:1012B40022FA03F306AA134413F8101CC30311D52E
:1012C40062684FF4003393FAA3F3B3FA83F002F4A1
:1012D4000033C34006AA134413F8140C064BB3FBA3
:1012E400F0F000E00548484300E0034806B070BD54
:1012F400184A00080010024000127A0000093D005C
:10130400544A2DE9F0411368064603F007038B4263
:101314000D460AD331688C0714D54F48436823F02F
:10132400F002B368134343600CE0136823F007032F
:101334000B431360136803F007039942EAD00120BA
:10134400BDE8F081C80706D4424A136803F00703D6
:101354009D424AD353E072683F4C012A02D14FF4B4
:10136400003304E0022A0CBF4FF00073022393FA07
:10137400A3F1216893FAA3F3B3FA83F303F01F03F1
:1013840021FA03F3D907DAD5636841F2883823F0E8
:1013940003031A436260FEF7A5FF73680746012B37
:1013A4000CD1636803F00C03042BCDD0FEF79AFF35
:1013B400C01B4045F5D90320BDE8F081022B0FD1B5
:1013C400636803F00C03082BBED0FEF78BFFC01B31
:1013D4004045F5D9EFE7FEF785FFC01B4045EAD845
:1013E400636813F00C0FF6D1AEE7136823F007031C
:1013F4002B431360136803F007039D429FD13168A8
:10140400154C11F0040F05D0636823F4E062F3680F
:10141400134363600B0706D56368326923F4605392
:1014240043EAC2036360FFF723FF6368F02292FA82
:10143400A2F2B2FA82F203F0F003D340074AD35C7B
:10144400D840074B18600F20FEF721FF0020BDE8AD
:10145400F08100BF00200240001002403B4A000817
:1014640014010020014B1868704700BF14010020CC
:1014740003682DE9F743DC07054664D53E4C3F4E2F
:10148400E36943F08053E361E36903F0805301931C
:10149400019B336843F480733360FEF723FF0746F0
:1014A4003368D80506D4FEF71DFFC01B6428F7D99E
:1014B40003205DE0236A304813F4407306D1236AA5
:1014C40023F440726B68134323623CE06A6802F4BD
:1014D40040729342F3D0016A4FF4803321F4407791
:1014E40093FAA3F2B2FA82F2254E4FF0010E46F8B7
:1014F40022E093FAA3F3B3FA83F30022C90746F870
:1015040023200762DBD5FEF7EDFE02268046374630
:1015140041F2883996FAA6F396FAA6F30BB1226A39
:1015240000E0626A97FAA7F3B3FA83F303F01F03A8
:1015340022FA03F3DA07C2D4FEF7D4FEC8EB0000A4
:101544004845E7D9B4E72868830706D50A494B68B4
:1015540023F44042AB6813434B6010F0100007D0F3
:10156400054900204B6823F480026B6913434B60E8
:1015740003B0BDE8F08300BF0010024000700040DB
:101584000004424284B001A880E80E0004B00020A8
:101594007047B0F840309BB243F43D43A0F840306C
:1015A40000207047B0F8403023F474535B045B0CA4
:1015B400A0F84030002070470020704784B010B578
:1015C40003AC84E80E00BDE810400123A0F84030CD
:1015D4000023A0F8403004B0A0F84430A0F8503004
:1015E40018467047CB7830B50A78032B2BD8DFE840
:1015F40003F0021F0C1530F822309BB223F4EC43A5
:1016040023F0700343F400731BE030F8223023F41A
:10161400EC4323F070031B041B0C12E030F822305F
:101624009BB223F4EC4323F0700343F4C06308E05B
:1016340030F822309BB223F4EC4323F0700343F4DC
:10164400806320F822300C7830F8243044F40042CF
:1016540023F0F0031B051B0D42F08002134320F816
:1016640024308B7A0D78002B74D14A788B883AB366
:10167400B0F850205B0892B202EBC5045B0000EBAB
:101684004404C4F800340A7830F822305B060BD5E1
:1016940030F8223023F0F0031B051B0D43F4004304
:1016A40043F0C00320F822300A7830F8223023F4C3
:1016B400E04323F040031B041B0C83F02003FBE0F6
:1016C400B0F850405B08A4B204EBC50404345B00DA
:1016D40000F5806242F81430B0F850400B780D6980
:1016E400A4B204EBC3043E2D04F106040BD9C5F3E4
:1016F4004F13ED0604BF03F1FF339BB26FEAC363DC
:101704006FEA534306E0C5F34F03ED0744BF0133CB
:101714009BB29B029BB242F814300A7830F8223014
:101724005C040BD530F8223023F0F0031B051B0DAD
:1017340043F4404343F0800320F822300A7830F821
:10174400223023F4804323F070031B041B0C83F426
:101754004053B1E030F8253000F5806423F4F87389
:101764001B051B0D43F4014343F0800320F825308F
:10177400B0F850300A789BB203EBC203CA8852080F
:10178400520044F81320B0F850300A789BB203EBAF
:10179400C2030A8904335208520044F813204B78D8
:1017A4000A78002B46D130F822305B040BD530F890
:1017B400223023F0F0031B051B0D43F4404343F098
:1017C400800320F822300A7830F822305D060BD5E9
:1017D40030F8223023F0F0031B051B0D43F40043C3
:1017E40043F0C00320F822300A7830F8223023F086
:1017F400F0031B051B0D43F4004343F0C00320F822
:1018040022300A7830F8223023F4804323F0700326
:101814001B041B0C83F4405343F4004343F0800344
:1018240020F822300A7830F8223023F0C0031B0558
:101834001B0D41E030F822305C040BD530F8223027
:1018440023F0F0031B051B0D43F4404343F08003D6
:1018540020F822300A7830F822305B060BD530F8B5
:10186400223023F0F0031B051B0D43F4004343F027
:10187400C00320F822300A7830F8223023F0F00335
:101884001B051B0D43F4404343F0800320F8223032
:101894000A7830F8223023F0C0031B051B0D43F4F3
:1018A400004343F0800320F822300A7830F82230D5
:1018B40023F0F0039B049B0C43F4004343F08003A8
:1018C40020F82230002030BD10B58C7A4A780B788D
:1018D4001CBB82B130F8232052065BD530F823209C
:1018E40022F0F0021205120D42F4004242F0C0024E
:1018F40020F823204EE030F82320540440F18D805A
:1019040030F8232022F0F0021205120D42F4404276
:1019140042F0800220F823207FE0002A42D130F8F0
:10192400232052040BD530F8232022F0F0021205B4
:10193400120D42F4404242F0800220F823200A783B
:1019440030F822305C060BD530F8223023F0F00357
:101954001B051B0D43F4004343F0C00320F8223061
:101964000A7830F8223023F0F0031B051B0D43F4F2
:10197400004343F0C00320F822300A7830F82230C4
:1019840023F0F0039B049B0C43F4004343F08003D7
:1019940020F822300A7830F8223023F0C0031B05E7
:1019A4001B0D41E030F8232052040BD530F82320DE
:1019B40022F0F0021205120D42F4404242F080027D
:1019C40020F823200A7830F822305B060BD530F853
:1019D400223023F0F0031B051B0D43F4004343F0B6
:1019E400C00320F822300A7830F8223023F0F003C4
:1019F4001B051B0D43F4404343F0800320F82230C1
:101A04000A7830F8223023F0C0031B051B0D43F481
:101A1400004343F0800320F822300A7830F8223063
:101A240023F0F0039B049B0C43F4004343F0800336
:101A340020F82230002010BD0A787AB903889BB2BE
:101A440023F4804323F0400383F4805383F0100392
:101A540043F4004343F0800303801CE04B7853B10C
:101A640030F8223023F4E04323F040031B041B0C22
:101A740083F0100309E030F8223023F4804323F08C
:101A840070031B041B0C83F4805343F4004343F0A2
:101A9400800320F82230002070474B780A78DBB1AD
:101AA40030F822305B060BD530F8223023F0F003F7
:101AB4001B051B0D43F4004343F0C00320F8223000
:101AC4000A7830F8223023F4E04323F040031B0467
:101AD4001B0C83F030031AE030F822305B040BD582
:101AE40030F8223023F0F0031B051B0D43F4404370
:101AF40043F0800320F822300A7830F8223023F4AF
:101B0400804323F070031B041B0C83F4405343F401
:101B1400004343F0800320F822300020704711B9BD
:101B24008023A0F84C30002070470020704700202C
:101B34007047B0F8440080B270470020704701330A
:101B440000F5806010B55B1000EB42020024A34254
:101B540005D031F8020B22F824000134F7E710BD58
:101B6400F8B5044648780E4601288B690A698F7ACD
:101B740057D11D46934283BF9D1A8D61154600239C
:101B840098BF8B61ABB27FB98A8820464969FFF759
:101B9400D6FFB4F8503032789BB203EBC20304EBA7
:101BA4004303C3F8045430E00A78204634F8221082
:101BB400D20011F0400FB4F8501089B20A4404EB7B
:101BC4004202C2F80454716914BF3289F288FFF7E3
:101BD400B6FF7378327853B934F8223023F0F00327
:101BE4001B051B0D43F4004343F0C0030BE0012B22
:101BF4000BD134F8223023F0F0031B051B0D43F402
:101C0400404343F0800324F82230327834F8223001
:101C140023F4E04323F040031B041B0C83F0300344
:101C240066E093428BBF9B1A00228B618A6188BF56
:101C34001346097827B300BBB4F850203E2B92B268
:101C440002EBC10101F1020104F580600BD9C3F379
:101C54004F12DD0604BF02F1FF3292B26FEAC26294
:101C64006FEA524206E0C3F34F02DF0744BF01327A
:101C740092B2920292B240F81120727831780ABB83
:101C8400B4F850203E2B92B202EBC10101F10601DF
:101C940004F580600BD9C3F34F12DD0604BF02F1D3
:101CA400FF3292B26FEAC2626FEA524206E0C3F3B5
:101CB4004F02DB0744BF013292B2920292B240F863
:101CC40011200AE0012A08D1B4F8502092B202EBA4
:101CD400C10104EB4101C1F80434327834F82230F4
:101CE40023F4804323F070031B041B0C83F4405340
:101CF40043F4004343F0800324F822300020F8BD6D
:101D0400013300F5806010B55B1000EB4202002443
:101D1400A34205D052F8240021F814000134F7E757
:101D240010BDD0F818321BB10020C3F8140270475C
:101D340002207047D0F81C3210B5D0F818425BB1BD
:101D440094F80002FF2807D09B6894F801222146EA
:101D54009847FF2384F80032002010BD43230380FA
:101D64000048704700000020432303800048704768
:101D7400CC000020432303800048704788000020E3
:101D84000A230380004870477C00002038B50546CC
:101D9400D0F8184201F0F8FFD5F81832C4F80C0254
:101DA4004BB1D5F81C3204F50371DB68D4F8040296
:101DB4009847002038BD022038BD0000F8B50F78E0
:101DC400064617F060030C4622D0202B27D1CA8880
:101DD4004B78BAB13906D0F8185209D5D0F81C128C
:101DE40018468F682946B847E2882946304614E0E9
:101DF40085F80032E388294685F80132E28800F04C
:101E0400A7FB0CE0D0F81C0284681846A04706E043
:101E14004B780A2B03D10349012200F084FB0020F4
:101E2400F8BD00BF8401002010B50446812101F0F3
:101E340047FF0121204601F043FF8221204601F0A3
:101E44003FFFD4F8183253B1D4F81C325B6898477A
:101E5400D4F8180201F0A2FF0023C4F818320020BD
:101E640010BDF8B5037C044643B94FF40073022255
:101E7400812101F015FF4FF4007305E04023022295
:101E8400812101F00DFF402302220121204601F0AF
:101E940007FF082303228221204601F001FF4FF4AB
:101EA400077001F077FF0646C4F81802E8B1D4F8C9
:101EB4001C3200251B689847277CC6F81452C6F8C4
:101EC40018524FB94FF40073D6F80422012120466A
:101ED40001F04CFF3846F8BD4023D6F80422012116
:101EE400204601F043FF2846F8BD0120F8BD19B192
:101EF400C0F81C120020704702207047D0F8183236
:101F04000020C3F80812C3F810227047D0F8183222
:101F14000020C3F804127047D0F8182210B572B12B
:101F2400D2F81442012364B9C2F814328121B2F800
:101F34001032D2F8082201F00BFF204610BD022017
:101F440010BD184610BDD0F8182210B562B1047C3B
:101F540014B94FF4007300E04023D2F804220121A5
:101F640001F004FF002010BD022010BD08B580B1AF
:101F7400D0F8143213B10023C0F8143209B1C0F8F8
:101F84001012012380F8FC31027001F039FE0020A8
:101F940008BD022008BD19B1C0F814120020704712
:101FA4000220704708B501F06DFE002008BD08B599
:101FB400D0F814320BB9022008BD1B6898470028DA
:101FC400F9D108BD08B5D0F814325B6898470020F1
:101FD40008BD38B5044600F50275284600F0E2F85D
:101FE4000123C4F8F43194F80812B4F80E32C4F89A
:101FF400F83101F01F03012B0CD006D3022B0ED1B4
:102004002946204600F010FA0EE02946204600F04A
:10201400E9F809E02946204600F0EEF904E001F071
:102024008001204601F05AFE002038BD38B5044630
:10203400154609BBD0F8F431032B26D1D0F80C1186
:10204400D0F8102191420AD98B1A9A4228BF1A4615
:10205400C0F80C3192B2294600F089FA15E0D0F8A4
:1020640014321B6923B190F8FC21032A00D198474C
:10207400204600F084FA08E0D0F814329B6923B1BA
:1020840090F8FC21032A00D19847002038BD70B590
:10209400134604460E4600293CD1D0F8F421022A06
:1020A40030D1C569026A954207D9AA1AC261194694
:1020B40092B200F045FA334611E08369B3FBF2F5BE
:1020C40002FB15358DB99A420FD8D0F8F821934206
:1020D4000BD22A4600F034FA2B46C4F8F8511A46BB
:1020E4001946204601F042FE0CE0D4F81432DB68B5
:1020F4002BB194F8FC21032A01D1204698472046AD
:1021040000F048FA94F80032012B0CD1002384F833
:10211400003208E0D0F814325B6923B190F8FC2156
:10212400032A00D19847002070BD38B50446002228
:1021340011464025402301F0B3FD2B46C4F810514D
:1021440000228021204601F0ABFD012384F8FC31FC
:10215400D4F8183225622BB1D4F8143221795B6893
:1021640020469847002038BD01740020704790F83D
:10217400FC3180F8FD31042380F8FC3100207047E5
:1021840090F8FD3180F8FC310020704708B590F8D4
:10219400FC21032A04D1D0F81432DB6903B1984737
:1021A400002008BD0B7803704B784370CA788B7895
:1021B40003EB022343804A790B7903EB02238380E8
:1021C400CA798B7903EB0223C380704710B50446A8
:1021D400802101F083FD2046BDE81040002101F07C
:1021E4007DBD000073B54B7804460D46092B00F203
:1021F400F980DFE813F0CB00E200F700DE00F7001F
:1022040075000A00F700BB0091004B881A0A013AD6
:10221400062A00F2E780DFE812F007000B0017003F
:10222400E500E5003C004700D0F810321B6817E0D9
:10223400027CD0F814320AB99B6A00E0DB6A0DF123
:102244000600984702233AE0DBB2052B00F2CA806D
:10225400DFE803F0030B0F13171BD0F810325B6891
:102264000DF10601207C98472AE0D0F810329B68D3
:10227400F6E7D0F81032DB68F2E7D0F810321B69C9
:10228400EEE7D0F810325B69EAE7D0F810329B69C8
:10229400E6E7037C002B40F0A580D0F814320DF162
:1022A40006005B6B98470BE0037C002B40F09A80A0
:1022B400D0F814320DF106001B6B984707234370C6
:1022C400BDF80620002A00F09180EB88002B00F076
:1022D4008D809A4228BF1A460146ADF8062064E074
:1022E4008B88002B7ED1CB88002B7BD190F8FC31DE
:1022F4008E78032B06F07F0674D080F8FE61314699
:1023040001F018FD204600F03AF90EB1022300E076
:10231400012384F8FC3169E08978364E0129317053
:1023240060D890F8FC31022B02D0032B08D059E07E
:10233400002953D001210323416080F8FC310FE0D0
:1023440031B9022380F8FC314160FFF73BFE45E0E0
:102354004168012942D0C9B2FFF734FE3178616087
:102364002046FFF724FE022838D13BE0CA88012A20
:1023740038D190F8FC31022B03D0032B32D1011D4C
:1023840013E00146002341F8083F0EE090F8FC31C9
:10239400023B012B26D80123C360D0F804320BB1D1
:1023A4000323C360022204F10C01204600F0BBF8B1
:1023B4001CE04B88012B19D108E090F8FC31023B5A
:1023C400012B0FD84B88012B10D10023C4F8043201
:1023D400D4F8143229469B6820469847204600F0DA
:1023E400CEF803E029462046FFF7F0FE002002B0B5
:1023F40070BD00BF8501002038B590F8FC3104465B
:10240400032B0D460CD10B79012B09D8D0F81432CB
:102414009B689847EB882BB9204600F0B0F801E0A0
:10242400FFF7D4FE002038BD70B50A788E8802F01C
:102434006002202A04460D46F3B204D1D0F81432C7
:102444009B68984751E04A78012A10D026D3032A82
:102454004BD190F8FC21022A27D0032A43D14A8881
:1024640092B95E0610D0194601F038FC0CE090F8E1
:10247400FC21022A19D0032A35D14A88AABB59065D
:1024840008D0194601F038FCD4F8143229469B6868
:1024940020469847204600F072F826E090F8FC2188
:1024A400022A02D0032A06D01DE05A061DD019467E
:1024B40001F014FC19E003F07F0516F0800F00EB27
:1024C4000515194614BF143505F5827501F022FC73
:1024D40010B101232B6000E0286002222946204627
:1024E40000F021F801E0FFF771FE002070BD30B567
:1024F400C0B105462B1A15F8014BDBB2002CF9D1FB
:102504005B00023313800B7003234B7001380223EA
:1025140010F8015F35B15A1CCD54D2B20233DBB28C
:102524008C54F5E730BD134610B50222C0F8F421EF
:1025340083610A46C361002101F00AFC002010BD3A
:1025440008B513460A46002101F002FC002008BD2C
:10255400134610B50322C0F8F421C0F808310A4626
:10256400C0F80C31002101F001FC002010BD08B5B9
:1025740013460A46002101F0F9FB002008BD08B506
:102584000423C0F8F43100231A46194601F0E0FB95
:10259400002008BD08B50523C0F8F43100231A460D
:1025A400194601F0E3FB002008BD08B501F0C4F8AA
:1025B400012803D0BDE8084000F0E8B808BD00F1E8
:1025C400080343604FF0FF32C3600361002382605D
:1025D4000360704700230361704743689A684B6047
:1025E4008A609A68516099600368086101330360E6
:1025F40070470A6830B5531C01D1036907E000F144
:1026040008035C682568AA4201D32346F9E75A689F
:102614004A6091608B60596003680861013303600C
:1026240030BD4168826803698A6082685160596874
:10263400884208BF5A600022026118680138186095
:102644007047000006480068006880F3088862B696
:1026540061B6BFF34F8FBFF36F8F00DF00BF000081
:1026640008ED00E04FF0807300E90A00034B40F8E6
:10267400202C40F80C3C4038704700BFD12600089D
:10268400074B19680868B0E8F00F80F30988BFF3B6
:102694006F8F4FF0000080F311884EF00D0E7047DD
:1026A400802A0020044B4FF080521A60BFF34F8FF2
:1026B400BFF36F8F704700BF04ED00E0EFF31180AC
:1026C4004FF0500181F311887047002008B5054B85
:1026D4001B68013302D0FFF7F1FFFEE7FFF7EEFFBF
:1026E400FEE700BF1001002008B5FFF7E7FF094A25
:1026F400136801331360BFF34F8FBFF36F8F012B48
:1027040007D1054B1B6813F0FF0F02D0FFF7D6FF6C
:10271400FEE708BD1001002004ED00E080F31188FD
:102724007047000008B5074B186810B9FFF7C6FFDB
:10273400FEE70138186018B9BDE80840FFF7EEBF9E
:1027440008BD00BF10010020EFF30980BFF36F8FB5
:102754000D4B1A6820E9F00F10602DE908404FF086
:10276400500080F3118800F0D5FE4FF0000080F394
:102774001188BDE8084019680868B0E8F00F80F3D4
:102784000988BFF36F8F7047802A002008B5FFF7D0
:1027940095FF00F03BFD18B1044B4FF080521A60D6
:1027A4000020BDE80840FFF7B9BF00BF04ED00E01A
:1027B400F0B53F4B85B01B683E4A9842019088BFF4
:1027C400019313683C4D23F001031360019993684E
:1027D4002C68013904FB0134384E0832336817463B
:1027E4009C4288BFE41A72B600F08CFF314B344A25
:1027F40050B939681160196841F0010119602B68FA
:10280400013B136062B650E014602E4A002111604F
:102814001A6804A842F001021A60019B40F8043DC2
:1028240001F03AF8039B23B1BFF34F8F30BFBFF3DE
:102834006F8F01A801F031F81E4A136823F00101DB
:10284400116062B613F4803F1E490FD00B682A68EA
:1028540031681344013B1B1B8B4201D39A4200D2C3
:10286400531E174A1360019C013C0BE02B680A6855
:10287400019959438A1AB2FBF3F404FB03339B1AFC
:102884000F4A13600F4B00221A60FFF72DFF094A0D
:102894002046136843F00103136000F0A3FC2B6887
:1028A400074A013B1360FFF73DFF05B0F0BD00BFD1
:1028B4009801002010E000E0880100208C01002035
:1028C40014E000E018E000E00D4B0E491A684FF4E4
:1028D4007A73B2FBF3F30B606FF07F41B1FBF3F15A
:1028E400B2FBF2F20848013B01602D21B1FBF2F288
:1028F40006490A60064A1360064B07221A607047AD
:102904001401002088010020980100208C0100207F
:1029140014E000E010E000E013B51F4B00211A782A
:10292400D2B20192FF221A701B781C4ADBB28DF8D6
:1029340003309DF8033003F050031370184B072243
:102944001A609DF80300541E000608D59DF8032064
:1029540001215200D2B28DF803202246F1E701B1E1
:102964001A601A68120202F4E0621A60019B0A4AB1
:10297400DBB213700B4B1A6842F470021A601A68C7
:1029840042F070421A60FFF79FFF074B00221A6063
:10299400FFF758FEFFF79AFE00E400E090010020E4
:1029A4009401002020ED00E01001002008B5EFF3B1
:1029B40005830F2B08D90A4A9B5C0A4A12789A426B
:1029C40002D9FFF77BFEFEE7074B084A1B68126833
:1029D40003F4E063934202D9FFF770FEFEE708BDFB
:1029E400F0E300E0900100200CED00E094010020F1
:1029F40010B50F4B1A68824201D21346FAE75968A0
:102A04005C18A04201BF4068091818465960416823
:102A14004418A24207D1074C2468A2421FBF54683D
:102A24001268091941609842026018BF186010BD0D
:102A3400A4010020A00100202DE9F041044600F08B
:102A4400C9FB3C493C4D0B680BBB3C4A56071FBFB6
:102A5400D01D20F0070002F52053024614BF1B1AB4
:102A64004FF420531344364E083B23F00703002051
:102A740070603260586018600B60981A1360314BB4
:102A840050601860304B18604FF000432B602F6883
:102A9400274240D1002C3FD004F1080358071CBF43
:102AA40023F007030833002B33D0274A16689046D7
:102AB400B34230D8224A15686868834203D809684B
:102AC4008D4206D127E02C68002CF8D02A462546F2
:102AD400F2E7296814681160C21A102A04F1080484
:102AE40009D9E818410702D0FFF7E8FDFEE7426084
:102AF4006B60FFF77DFF13496A680868B31A834265
:102B0400C8F8003038BF0B60174300236F602B6098
:102B140002E01C4600E0002400F012FC0CB900F0B6
:102B2400BAFE630702D0FFF7C9FDFEE72046BDE801
:102B3400F08100BFA0010020AC290020AC010020DE
:102B4400A4010020B02900209C01002010B50446F7
:102B540010B3124A50F8043C1268134202D1FFF732
:102B6400ADFDFEE750F8081C11B1FFF7A7FDFEE725
:102B740023EA020340F8043C00F02CFB084A54F812
:102B8400041C1368A4F108000B441360FFF730FF22
:102B9400BDE8104000F0D4BB10BD00BFAC2900203C
:102BA4009C01002038B51546026C044632B905680C
:102BB40045BB406800F01AFE656024E06DB980688A
:102BC40001F0CCFEA268236C13446268A3609342B4
:102BD40018D323682846A36015E0C06801F0BEFE40
:102BE400236CE2685B4221681A448A42E2603EBF79
:102BF40062689B18E360022D04D1A36B13B1A36B2D
:102C0400013BA3630020A36B0133A36338BD0346D8
:102C14001A6C10B4084662B1D9685C681144A142C8
:102C2400D96028BF196810BC28BFD960D96801F0E1
:102C340095BE10BC704738B50446FFF755FD04F146
:102C44002405A36C002B0BDD636A4BB1284600F00E
:102C5400D7FC08B100F050FDA36C013BA364F0E77E
:102C64004FF0FF33A364FFF75DFDFFF73DFD04F173
:102C74001005636C002B0BDD23694BB1284600F073
:102C8400BFFC08B100F038FD636C013B6364F0E7FE
:102C94004FF0FF336364BDE83840FFF743BD38B5F8
:102CA4000D46044610B9FFF709FDFEE7FFF71CFDCA
:102CB400206CE36B22684343D1181B1A13446160F0
:102CC400E36000214FF0FF33A163A2606364A36457
:102CD40055B9236983B104F1100000F091FC012877
:102CE4000AD1FFF7DFFC07E004F11000FFF767FCEF
:102CF40004F12400FFF763FCFFF714FD012038BD45
:102D0400F8B50D461746064610B9FFF7D7FCFEE79F
:102D140011B14843013000E008465430FFF78CFEFF
:102D2400044630B10DB9206006E000F1540303609D
:102D340002E0FFF7C3FCFEE7E663256401212046B9
:102D4400FFF7ADFF84F850702046F8BD2DE9F0413F
:102D54000E4690461D46044610B9FFF7AFFCFEE749
:102D640021B9036C13B1FFF7A9FCFEE7022D05D1CD
:102D7400E36B012B02D0FFF7A1FCFEE7FFF716FE81
:102D8400FFF79CFCA26BE36B07469A4201D3022D2A
:102D94001AD12A4631462046FFF704FFA36C0133BB
:102DA4000DD1636A73B104F1240000F029FC48B129
:102DB400B8F1000F06D00124C8F8004005E0A36C68
:102DC4000133A364012400E000243846FFF7A6FC85
:102DD4002046BDE8F0812DE9F04385B08846019294
:102DE4009946044610B9FFF769FCFEE721B9036C64
:102DF40013B1FFF763FCFEE700F09EFC10B9019EDF
:102E04000EB178E000260027FFF76EFCA36B3BB3FE
:102E140041462046E568FFF7FAFEB9F1000F12D1EA
:102E2400A36B013BA363236813B900F023FD606027
:102E340023698BB104F1100000F0E2FB01280BD1EF
:102E4400FFF730FC08E0636AE5602BB104F124006D
:102E540000F0D6FB0028F3D1FFF764FC01204DE01D
:102E6400019D1DB9FFF75EFC284647E016B902A88C
:102E740000F004FCFFF756FC00F0ACF9FFF734FC5B
:102E8400636C013308BF6764A36C013308BFA76494
:102E9400FFF748FC01A902A800F000FC20BBFFF7E3
:102EA40023FCA56BFFF73EFCC5B9236833B9FFF7D4
:102EB4001BFC606800F050FCFFF734FC019904F13E
:102EC400240000F06BFB2046FFF7B5FE00F038FA53
:102ED40008B1012698E7FFF7E5FBFAE72046FFF77C
:102EE400AAFE00F02DFAF4E72046FFF7A4FE00F056
:102EF40027FA002002E0FFF7E1FBFEE705B0BDE89A
:102F0400F0830000074B1B68D86A48B9064B1B685E
:102F1400012B06D8054A064B1B681068181A70471F
:102F240000207047802A0020E02900208C2A0020FD
:102F3400842A0020064A13681968064B11B94FF019
:102F4400FF3203E01268D268D26852681A60704790
:102F5400BC290020842A00200E4B10B51A680446B0
:102F640050600D4A1268904207D2BDE810400B4AE7
:102F7400106819680431FFF73CBB094A10681968E6
:102F84000431FFF736FB074B1A68944238BF1C60C4
:102F940010BD00BF802A00208C2A0020902A002027
:102FA400BC290020842A00202DE9F84F0A9E9A4665
:102FB4000F461546DDF82C800C9B814610B9FFF7AF
:102FC4007DFBFEE7062E02D9FFF778FBFEE73BB94F
:102FD4009000FFF731FD8346002800F0AA8000E04E
:102FE4009B466420FFF728FD044688B1AD002A46BD
:102FF400C0F830B0A521584601F0D6FC236B043D3F
:103004001D4425F007057B1E04F133020F3705E04C
:103014005846FFF79BFD8CE0BB4206D013F8011F16
:1030240002F8011F19780029F6D14FF0000B271D73
:10303400384684F843B0E662E664C4F850B0FFF75B
:10304400C9FA04F11800FFF7C5FAC6F10703C4F87A
:103054005CB02461A3616462C4F854B0C4F858B08D
:1030640084F860B0524649462846FFF7FBFA2060D0
:10307400B8F1000F01D0C8F80040FFF735FB2F4A24
:103084002F4D1368DFF8DC90013313602B683BBBD2
:103094002C601268012A2BD1984609EB080008F12C
:1030A4001408FFF78CFAB8F18C0FF6D1DFF8B8A04A
:1030B400DFF8B8805046FFF782FA4046FFF77FFA00
:1030C4002048FFF77CFA2048FFF779FA1F48FFF7FA
:1030D40076FA1F4BC3F800A01E4BC3F8008007E02C
:1030E4001D4B1B6823B92B68DB6A9E4228BF2C60EA
:1030F4001A4A1B49136801331360E26A63640B685C
:10310400012404FA02F0034314200B6000FB029034
:103114003946FFF762FAFFF705FB0F4B1B682BB12B
:103124002B68DB6A9E4201D9FFF7BCFA2046BDE852
:10313400F88F4FF0FF30BDE8F88F00BFAC2A0020B5
:10314400802A0020942A00206C2A0020C42A00200F
:10315400BC290020902A0020C0290020A82A002091
:10316400D82A0020E0290020C8290020B02A002005
:1031740030B5002485B0039402940194009423464E
:1031840080220F490F48FFF70FFF0128054610D191
:10319400FFF794FA0C4B4FF0FF321A600B4B1D6093
:1031A4000B4B1C6000F072FB05B0BDE83040FFF72C
:1031B400B3BB10B9FFF782FAFEE705B030BD00BF1C
:1031C4002A4A000875340008842A0020C0290020F7
:1031D4008C2A0020024A136801331360704700BF31
:1031E400882A002008B5074B07491A680968024471
:1031F4008A4202D9FFF762FAFEE71A68104418609F
:1032040008BD00BF8C2A0020842A0020414B2DE9F0
:10321400F74F1B68002B3CD13F4B1A6801321A60F0
:103224001D688DB93D4B1A68126812B1FFF746FA52
:10323400FEE73B4A1968106818601160394A136840
:1032440001331360FFF776FE374C4FF0000B236811
:1032540001949D42354E364F0BD3DFF8C080DFF822
:10326400DC90D8F800201268E2B9019B4FF0FF32DD
:103274001A603A68D16A14224A43B258022A2D4A83
:1032840028BF4FF0010B1268002A39D100F002FB6D
:1032940036E0284A4FF0000B13680133136000F046
:1032A400F9FA2DE0D8F80020D268D46861688D421C
:1032B40002D2019B1960DCE704F1040A5046FFF7CF
:1032C400B0F9A16A19B104F11800FFF7AAF9E06A8C
:1032D400D9F80010012303FA00FE4EEA01014FF071
:1032E400140EC9F800100EFB00605146FFF775F983
:1032F4003868E16AC26A914228BF4FF0010BB0E717
:103304000D4A1268002A18BF4FF0010B584603B04B
:10331400BDE8F08F882A00208C2A0020BC290020D8
:10332400902A0020B8290020842A0020E0290020C7
:10333400802A0020DC290020DC2A0020D82A002052
:103344002DE9F8432A4C236813B9FFF7B7F9FEE7D0
:10335400FFF7CAF92368013B236023680BB10024FB
:1033640041E0244B1B68002BF9D0234D234EDFF89A
:103374009C802B6803B3EB680127DC6804F1040923
:1033840004F11800FFF74DF94846FFF74AF9E26ADD
:10339400336807FA02F114200B4300FB028049460C
:1033A4003360FFF71AF9164BE26A1B68DB6A9A422C
:1033B400DFD3144B1F60DAE7134C236833B9114B86
:1033C4001C68012CCBD1FFF76DF90CE00D4D0126E3
:1033D4002368002BF3D0FFF719FF00B12E60236898
:1033E400013B2360F4E7FFF79DF92046BDE8F8832D
:1033F400882A0020AC2A0020942A0020D82A002001
:10340400802A0020DC2A0020DC290020E02900207A
:1034140038B518B9BDE83840FFF744B9104B1B68FC
:1034240013B1FFF74BF9FEE7FFF7D4FE0D4B0E4D3A
:103434001B68C41828680430FFF7F3F840B92B68F8
:103444000A49D86A0A680123834022EA03030B600D
:103454002046FFF781FDFFF773FF0028DAD038BD5F
:10346400882A00208C2A0020802A0020D82A0020C4
:10347400F8B5224D2E46224F2B68F3B1FFF7AAFE72
:103484003C68FFF75DFF002CF6D0FFF72DF91C4BCD
:10349400DB68DC68201DFFF7C4F81A4A1368013B97
:1034A40013603368013B3360FFF73CF9206BFFF78F
:1034B4004DFB2046FFF74AFBDEE7134B1B68012B4D
:1034C40001D9FFF7EFF800F0E4F9FFF71BFD01283D
:1034D400D1D9FFF77FFE0D4B1A680D4B1B689A423A
:1034E40002D2FFF7EBF8FEE7FFF70CFD012801D944
:1034F400FFF75EF9FFF724FFBDE700BFC4290020F2
:103504006C2A0020AC2A0020E0290020842A002014
:103514008C2A00201B4B10B51A681B4B0AB10122E0
:103524002DE01A6000F0B3F9184A1468A04205D9D6
:10353400174B19688B6D1B1B03448B65154B10606F
:103544001B68B3FA83F3DBB2C3F11F0314225A439B
:1035540011498C58881814B9FFF7B0F8FEE744688D
:10356400083264680A44944208BF6268446008BF31
:103574004260142202FB03135B68DA68044B1A608E
:1035840010BD00BF882A0020DC2A0020B4290020B6
:10359400802A0020D82A0020E029002038B50D46D2
:1035A40010B9FFF78BF8FEE7114C21681831FFF7CB
:1035B40020F820680430FFF734F840B923680D4937
:1035C400D86A0A680123834022EA03030B606B1C58
:1035D40006D1216808480431BDE83840FEF7FDBF34
:1035E400064B18682844BDE83840FFF7B5BC00BF57
:1035F400802A0020D82A0020C42A00208C2A0020F7
:10360400C36870B5DC6814B9FFF758F8FEE704F135
:1036140018052846FFF705F8124B1B6883B9261DC9
:103624003046FEF7FEFF1049E56A0A680123AB4005
:1036340013430B600D4B1420314600FB053001E0B1
:1036440029460B48FEF7C9FF0A4BE26A1B68DB6A8E
:103654009A4285BF084B012000201860FFF76AFCDE
:1036640070BD00BF882A0020D82A0020E02900204D
:10367400942A0020802A0020DC2A002008B510B9F2
:10368400FFF71CF8FEE7034B1B680360024B1B6843
:10369400436008BDB82900208C2A002038B50D46A7
:1036A400044610B9FFF70AF8FEE711B9FFF706F868
:1036B400FEE7FFF719F80E4B19682B685A1C10D057
:1036C4000C4A206812689042626801D091420AD282
:1036D400881A834207D9521A13442B602046FFF7F5
:1036E400CDFF002400E00124FFF71CF8204638BD7C
:1036F4008C2A0020B8290020014B01221A6070474F
:10370400DC2A0020084B186860B9084B1B6853B9C1
:10371400074B1868074B01381B68834214BF01200C
:103724000220704700207047942A0020DC2A0020E1
:10373400AC2A0020C42A0020054B1B6833B1054B7A
:103744001B68002B0CBF022000207047012070472B
:10375400C0290020882A00202DE9F04104460028D1
:103764003BD01F4DC36A2A68D26A934235D282691C
:103774001C4E002AA8BF2A684FF01407A8BFD26ABB
:1037840007FB0363A4BFC2F10702826142699A4244
:1037940020D100F104084046FEF743FF124B48B91C
:1037A400E06A4743F2592AB919680122824021EAA2
:1037B40002021A602A680120D26A4146E2621C6849
:1037C400904020431860142000FB0260BDE8F041E3
:1037D400FEF703BF2B68DB6AC362BDE8F08100BF5C
:1037E400802A0020E0290020D82A0020F8B50446C9
:1037F40008B90020F8BD1C4B1B68984202D0FEF7A4
:103804005DFFFEE7036D13B9FEF758FFFEE7C16ADB
:10381400C26C013B91420365EBD0002BE9D1051D3D
:103824002846FEF7FEFE114E114A50B9E76A1421EC
:10383400794373582BB910680123BB4020EA030372
:103844001360E36C1068C3F10701E362A161012412
:1038540004FA03F108431060142000FB03602946B6
:10386400FEF7BBFE2046F8BD802A0020E029002098
:10387400D82A0020044B1A681AB119680A6D01325B
:103884000A651868704700BF802A0020704700202E
:1038940070477047704770477047704708B500F02D
:1038A4005BFF00F02FFFFCE708B54FF47A70FFF7D9
:1038B400AFFD4FF400510248FCF786FEF5E700BF68
:1038C4000010014030B54FF4803397B001220D93BE
:1038D4000021022414930CA84FF4E0130C920E91CF
:1038E400109213941593FDF763FA00B1FEE70F25C8
:1038F40003904FF480630590214601A8019502943A
:103904000493FDF7FDFC00B1FEE710230B9006A81D
:103914000693FDF7ADFD044600B1FEE7FDF7A2FDF9
:103924004FF47A73B0FBF3F0FCF742FD0420FCF78C
:1039340055FD224629464FF0FF30FCF7F9FC17B03D
:1039440030BD000000B58DB0FCF7B4FCFFF7BAFF42
:10395400244B4FF4C0419A69234842F010029A6103
:103964009A69002402F010020592059A9A690126C8
:1039740042F020029A619A69022502F0200206921E
:10398400069A9A6942F004029A619B69002203F044
:1039940004030793079BFCF713FE4FF4C04308A9E5
:1039A4001148089309960B95FCF724FD00F060F884
:1039B40000F09CFE2346C8220C490394029401940F
:1039C40000960B48FFF7F0FA23464FF4FA720949C0
:1039D40003940294019400950748FFF7E5FAFFF772
:1039E400C7FBFEE700100240001001402F4A000808
:1039F400AD380008334A0008A1380008FEE77047D4
:103A0400FEE7FEE7FEE7FEE7704708B5FCF762FC59
:103A1400BDE80840FEF7C9BD0148FCF7FDBE00BF84
:103A2400E42F00200F4B1A6842F001021A60596813
:103A34000D4A0A405A601A6822F0847222F48032D5
:103A44001A601A6822F480221A605A6822F4FE026C
:103A54005A604FF41F029A60044B4FF000629A6060
:103A6400704700BF001002400000FFF800ED00E0C6
:103A740010B5094C002209492046FEF777FA084997
:103A84002046FEF788FA20460649FEF730FA20461B
:103A9400BDE81040FEF786BA382D0020280100202A
:103AA40044000020180100200020704700207047C7
:103AB40070B505460C680D4E0D4B22460146304646
:103AC4001C6000F04BFF0B4A214613683046234428
:103AD400094C136000F0FCFE29462046FEF716FA56
:103AE4002046FEF730FA002070BD00BFA02F002052
:103AF4005C2F0020E02A0020382D002010B5064C51
:103B0400002206492046FEF7F9F905492046FEF74A
:103B1400FDF9002010BD00BF382D0020A12F00208A
:103B2400602F002010B5094C0A46D4F81832D3F897
:103B3400143243B901462046FEF7E0F92046BDE8B9
:103B44001040FEF7E9B9012010BD00BF382D002058
:103B540007B50D4B02689A4212D103F5DA33DA69DC
:103B6400142042F40002DA61DB69002203F400034A
:103B740001930521019BFCF7DBFB1420FCF70CFCF3
:103B840003B05DF804FB00BF005C004000F57B71EE
:103B9400D0F81C04FEF71DBA00EB4113D3F81C2225
:103BA400D0F81C04FEF742BA00EB4113DA6BD0F8EC
:103BB4001C04FEF76CBAD0F81C04FEF7E7BA10B583
:103BC40004460121D0F81C04FEF7CEFAD4F81C04F4
:103BD400BDE81040FEF7A9BA10B50446D0F81C049D
:103BE400FEF7C5FAA36923B1024A136943F0060339
:103BF400136110BD00ED00E0D0F81C04FEF7C0BA5C
:103C040010B504461D491E48022308224FF0030E36
:103C1400C0F81C4480E80E40C4F8200200238361ED
:103C2400C3610362FCF7D4FC08B1FFF7E7FE00228E
:103C340011461823D4F82002FDF7A2F858230022D5
:103C44008021D4F82002FDF79BF8C02300228121B3
:103C5400D4F82002FDF794F84FF488730022012170
:103C6400D4F82002FDF78CF84FF4807300228221EF
:103C7400D4F82002FDF784F8002010BD005C004059
:103C8400E42F002008B5D0F82002FCF70BFD032830
:103C94009ABF024B185C022008BD00BF4B4A0008C3
:103CA40010B51C46D0F8200213462246FCF725FD29
:103CB40003289ABF014B185C022010BD4B4A000830
:103CC40008B5D0F82002FCF73BFD03289ABF024B4D
:103CD400185C022008BD00BF4B4A000808B5D0F8A4
:103CE4002002FDF701F803289ABF024B185C02205A
:103CF40008BD00BF4B4A000808B5D0F82002FDF704
:103D04001CF803289ABF024B185C022008BD00BFB0
:103D14004B4A00080A06D0F8203245BF01F07F0163
:103D240003EB411303EB411393F82A0058BF93F8B4
:103D34000A02704708B5D0F82002FCF7CAFC032831
:103D44009ABF024B185C022008BD00BF4B4A000812
:103D540008B5D0F82002FCF73FFD03289ABF024BB8
:103D6400185C022008BD00BF4B4A000808B5D0F813
:103D74002002FCF706FD03289ABF024B185C0220C0
:103D840008BD00BF4B4A000808B5D0F82002FCF774
:103D94001CFD08BD00487047E42A002070477047A6
:103DA40012230B80004870474801002004230B8035
:103DB400004870474401002010B5044C0A460448EA
:103DC4002146FEF794FB204610BD00BF04340020BA
:103DD4004F4A000810B5044C0A4604482146FEF731
:103DE40086FB204610BD00BF04340020624A000850
:103DF40010B5044C0A4604482146FEF778FB2046D9
:103E040010BD00BF04340020784A000810B5044CEB
:103E14000A4604482146FEF76AFB204610BD00BF4F
:103E240004340020854A000810B5044C0A460448AE
:103E34002146FEF75CFB204610BD00BF0434002081
:103E4400904A0008F0B500240546234600F15406C4
:103E5400281990F8540028B98C4217DA184601340E
:103E64000346F5E78C4211DA581C3719072842F843
:103E740023700DDC2B1993F8543023B18C4201D0FC
:103E84000134F7E7F0BD8C42EADBF0BD1846F0BD23
:103E94004FF0FF30F0BD13B50023B0F5803F02466C
:103EA4000093ADF8043016D20A204AB1B2FBF0F404
:103EB40000FB142230320DF8032022460133F4E7CC
:103EC40008460DEB03021944884204D012F8013D60
:103ED40000F8013BF8E7084600230B7002B010BD60
:103EE4001FB504460B49684600F066FD0DF102015A
:103EF4006E20FFF7D0FF084900F05EFDC11C0720CB
:103F0400FFF7C9FF054900F057FD23686846984745
:103F140004B010BD9F4A00089E4A0008A24A000847
:103F240030B50C4685B0102200210546684600F0E5
:103F34003BFD0D49684600F03FFD002C06DD0DF108
:103F440002012046FFF7A7FF084906E00AD00DF159
:103F540002016042FFF79FFF054900F02DFD2B6829
:103F64006846984705B030BD9F4A0008A24A000839
:103F7400AE4A0008F7B5D0F8CC30044613480D46D5
:103F84001646984700238DF804308DF80530202715
:103F9400D4F8BC309D420EDA631993F8543013B14F
:103FA4008DF8043001E08DF80470D4F8CC3001A809
:103FB40098470135ECE7CC342046FFF791FF3146B2
:103FC4002046FFF7ADFF03B0F0BD00BFA44A0008D0
:103FD4002DE9F047044600F15406406C00230546E1
:103FE4006219127932B1013215443F2DC8BF403DE8
:103FF4000133F5E7E56C91B9AB4272DB5B1B01223F
:1040040004EB000898F80470002F6AD0934232D071
:10401400013738443F28C8BF40380132F0E7002D4B
:104024004EDD013DE56404EB000898F8047047B1E7
:10403400AB4206D0013738443F28C8BF4038013B63
:10404400F1E7C3193F2B04F1040900F1010103DC7A
:104054003A464944304609E0C0F13F052A464944FE
:10406400304600F07BFC49467A1B701900F076FC60
:1040740098F8043025E0C31901353F2BE56400F1BD
:10408400010A04F1040508DC65220021304600F031
:104094008BFC3A4605EB0A01DCE7C0F13F096522D7
:1040A4000021304600F080FC4A4605EB0A01304608
:1040B40000F054FCC9EB0702294606EB0900D5E7DA
:1040C400134604F1CC00C4F8BC30C4F8C030FFF788
:1040D40007FFD4F8C0202046BDE8F0470021FFF7D1
:1040E40049BFBDE8F0870000D0F8C03010B5002B00
:1040F40004461EDDD0F8CC300E489847D4F8C010E2
:10410400D4F8BC2004F15403521A481E0132194455
:10411400184400F02EFCD4F8C0300021013BC4F850
:10412400C030D4F8BC30E218013B82F85410C4F813
:10413400BC3010BDA84A000870B51546D0F8BC20A4
:1041440004465319642B0E4627DCD4F8C0105430AF
:104154006B18521A0144184400F00BFC002210465C
:10416400AA42D4F8C0300ADAB15C134420292344AB
:1041740014BF83F8541083F854000132F0E7D4F8E4
:10418400BC202B442A44C4F8C030C4F8BC2000230B
:10419400144484F85430012070BD002070BD000028
:1041A40070B504460D4665220021543000F0FCFB36
:1041B40040220021201D00F0F7FB00236364A36468
:1041C400E364C4F8BC30C4F8C030C4F8C430C4F8E4
:1041D400C830C4F8D030064BC4F8CC501B6805482E
:1041E4002365A847D4F8CC30206DBDE8704018474B
:1041F4005C010020B04A0008C0F8C8107047C0F83D
:10420400C4107047C0F8D010704700002DE9F04189
:104214000446D0F8CC3088B039489847D4F8BC501C
:104224006B1E3D2B38D8626CA318197951B1A36C5D
:104234009A42A2EB0303D4BF3F3303F1FF339D4201
:1042440055DA00E01D71A06C04F15408C0F13F067A
:10425400B54204F1040700F1010003DA2A4641469D
:10426400384408E032464146384400F077FB38468B
:10427400AA1B08EB060100F071FBA36CE218157190
:104284001D446B1C3F2BCABF3F3DA364A564A36CB4
:10429400002223441A71E2646A46D4F8BC10204612
:1042A400FFF7D0FD421C08D1D4F8CC30154898470C
:1042B400D4F8CC301248984706E0002804DDD4F83E
:1042C400C4300BB1694698470025D4F8CC30206D32
:1042D4009847C4F8BC50C4F8C0506522294604F17C
:1042E400540000F061FBE56408B0BDE8F0810A44C5
:1042F400531C3F2B01DDA2F13F03636493E700BF2E
:10430400B04A0008B24A00082DE9F04145788AB065
:1043140004460191002D54D0CBB25B2B01D1012373
:104324002EE00178012932D1412B01D1002101E095
:10433400422B02D1FFF74CFE4CE1432B0DD1D0F8B8
:10434400C020D0F8BC309A4280F24481CC30FFF7D0
:10435400E7FDD4F8C030013330E0442B0DD1D0F860
:10436400C030002B40F336814FF0FF31CC30FFF7E3
:10437400D7FDD4F8C030013B20E0372B02D1022313
:10438400237029E1382B40F025810323F8E77E2BA5
:1043940040F02081022904D1CC30FFF7A1FD002395
:1043A4000CE0032940F01681D0F8C030D0F8BC10DE
:1043B400CC30C91AFFF7B4FDD4F8BC30C4F8C0300F
:1043C40008E10A2900F008811ADC052900F0B4800C
:1043D4000EDC022900F0CB80032900F0E1800129E2
:1043E40040F0E380CC30FFF77BFDC4F8C050F3E02D
:1043F400082900F0CE8023DC062900F0A880D4E050
:10440400102900F0C08010DC0D2916D00E2900F010
:10441400BC800B2940F0C980D0F8CC307048984754
:10442400D4F8C030C4F8BC30D6E01B2978D07F293A
:1044340000F0AF80152975D0B7E0FFF7E7FECBE0B9
:10444400D0F8C830002B00F0C78002AAD0F8C01002
:10445400FFF7F8FCD4F8C0300746234493F85330F0
:1044640033B90AAB5F4A03EB800343F8202C0137CE
:10447400D4F8C83002A93846984705460068002891
:1044840000F0AA806B6813B1012300260CE0FBF74F
:10449400D1FE064628E02A4452F8042C895D925D38
:1044A4008A4207D132B1013655F823109A00002907
:1044B400F1D106E0D4F8CC304B489847A5F1040874
:1044C40001E00133F0E758F8040FD4F8CC3028B1F8
:1044D4009847D4F8CC3045489847F4E74248984781
:1044E400D4F8CC30206D98479EB10AAB03EB870714
:1044F40057F8240CFBF79EFE2968321A0144204623
:10450400FFF71AFE6B6823B9012238492046FFF7EA
:1045140013FE04F1CC00FFF7E3FCD4F8C02009E05B
:10452400012358E0D4F8C020002A03DD2046FFF719
:10453400DBFDF7E7002149E0D0F8C030D0F8BC102B
:10454400CC30C91AFFF7ECFCD4F8BC300CE0D0F83E
:10455400C020D0F8BC309A423EDA0121CC30FFF7BB
:10456400DFFCD4F8C0300133C4F8C03034E0D0F8F4
:10457400C0308BB34FF0FF31CC30FFF7D1FCD4F80F
:10458400C030013BF0E7294600E00121FFF720FDA0
:1045940022E02046FFF7A8FDD4F8C020114615E01C
:1045A400D0F8D030C3B1984716E0202903D1D4F80D
:1045B400BC3013B910E01F290EDD012201A92046E9
:1045C400FFF7BAFD40B1D4F8C020511E2046FFF7D2
:1045D400D1FC01E0002363700AB0BDE8F08100BFA4
:1045E400A44A0008B14A0008B04A0008B24B0008C7
:1045F400BFF34F8F0549064BCA6802F4E0621343C8
:10460400CB60BFF34F8F00BFFDE700BF00ED00E0BC
:104614000400FA052DE9F84F134D002401282C60FD
:104624001CD12646114BD1F80090D3F80080DFF856
:1046340040B04FF00C0A464510DA0AFB06F353F873
:104644000B704946384600F0BFF9874208BF45F869
:10465400247006F1010608BF0134ECE7002345F895
:1046640024300148BDE8F88F082D0020342D0020A7
:10467400D83600202DE9F04106460C4BDFF8308097
:104684001D6800240C27AC4209DA07FB04F330460A
:1046940053F80810FBF7C4FD28B10134F3E74FF0D9
:1046A400FF30BDE8F0812046BDE8F081342D0020C4
:1046B400D836002010B50446FBF7BCFD81B2204675
:1046C400FFF730FABDE810400120FEF7A1BE00005C
:1046D40008B50448FFF7EEFF0348FFF7EBFF00209F
:1046E40008BD00BFD94A0008DE4A000808B5002208
:1046F40001211020FEF704FB014B186008BD00BF28
:10470400042D0020094B07B5186860B100230DF192
:1047140007014FF0FF32FEF75EFB054B9DF80710D3
:104724001868FFF7F1FD03B05DF804FB042D0020C9
:1047340060010020F0B5064D0C242B68054F5C4346
:1047440001333E19B060395172602B60F0BD00BF77
:10475400342D0020D836002010B50022104911480D
:10476400FFF7E8FF104C114A11491248FFF7E2FF26
:10477400114A12491248FFF7DDFF20681149FFF77B
:104784000FFD20681049FFF73AFD20680F49FFF735
:1047940033FD20680E49BDE81040FFF733BD00BF6C
:1047A400E24A00082548000860010020E84A0008A1
:1047B400334B00084D480008384B0008594B00089B
:1047C400D5460008B9460008ED4700081946000818
:1047D400F545000808B5FFF76DFFBDE8084001483E
:1047E400FFF768BFB04A000870B5064608680D4672
:1047F400FFF740FF431C044609D0074B0C2202FB81
:104804000034291DA368701EBDE870401847034892
:10481400FFF7E0FF204670BDD83600205F4B00084C
:1048240008B50448FFF746FF0348FFF7D3FF00200D
:1048340008BD00BF964B0008B44B00080148FFF7C1
:1048440039BF00BFB04A000870B5044610B1012852
:104854001AD028E01648FFF7BDFFFFF7EFFF154811
:10486400FFF7B8FF144D154E2B689C4209DA0C2350
:1048740063439859FFF71EFF1148FFF71BFF0134EC
:10488400F2E7FFF7DBFF11E00868FFF7F3FE431CD4
:1048940001D10C4808E0094B0C2202FB00304068AF
:1048A40010B9094800E00948FFF794FF002070BDE3
:1048B400BA4B0008E24B0008342D0020D836002003
:1048C400B24B0008F64B0008094C0008314C0008B4
:1048D40073B5002301930C4B1A681D4632B9019B32
:1048E40083B10A4B4FF080521A600BE0044646181D
:1048F400B442F4D02146002301AA2868FEF726FA20
:104904000134F5E702B070BD042D002004ED00E091
:104914000E4B70B51E460E4C0025E41AA410A54299
:1049240004D056F8253098470135F8E700F066F8CA
:10493400084B094C1E46E41AA4100025A54204D0D5
:1049440056F8253098470135F8E770BD884C0008C3
:10495400884C0008884C00088C4C000810B5431E95
:104964000A44914204D011F8014B03F8014FF8E7CF
:1049740010BD884210B501EB020301D8421E0BE0C2
:104984009842FBD28118D21AD34204D013F8014DB5
:1049940001F8014DF8E710BD994204D011F8014B1C
:1049A40002F8014FF8E710BD03460244934202D0D7
:1049B40003F8011BFAE77047034611F8012B03F8CB
:1049C400012B002AF9D17047F0B5037863B90B784D
:1049D400002B18BF0020F0BD15F8012F62B114F8A8
:1049E400017F30469742F7D00346461C007810B149
:1049F4004D1E5C1EF0E7F0BD1846F0BDF8B500BFD3
:104A0400F8BC08BC9E467047F8B500BFF8BC08BCAB
:044A14009E46704703
:104A180002030405060708090A0B0C0D0E0F1010F7
:104A2800010249444C45006C6564006D6963726F0E
:104A3800726C000000000000000000010203040680
:104A48000708090002010253544D6963726F656CCF
:104A5800656374726F6E6963730053544D3332200B
:104A68005669727475616C20436F6D506F72740073
:104A78003030303030303030303031410043444312
:104A880020436F6E6669670043444320496E74652E
:104A9800726661636500441B5B0043001B5B4B004F
:104AA8001B5B44201B5B44000D004552524F523A99
:104AB800746F6F206D616E7920746F6B656E730013
:104AC8001B5B33326D4952696E203E1B5B306D2093
:104AD800001B5B324A001B5B480061626F75740003
:104AE800546869732066756E6374696F6E20616CB3
:104AF8006C6F777320746F207669657720746865AA
:104B080020617661696C61626C65206F7074696F91
:104B18006E7320616E6420746865697220646573C1
:104B28006372697074696F6E732E0068656C7000CB
:104B3800546869732066756E6374696F6E20636C60
:104B480065617273207468652073637265656E2E83
:104B580000636C65617200556E6B6E6F776E2063D3
:104B68006F6D6D616E642E205479706520226865C2
:104B78006C702220746F2073656520617661696CA2
:104B880061626C6520636F6D6D616E6473004D6961
:104B980063726F726C206261736564207465726DF4
:104BA800696E616C2E205665722E2000312E352ECE
:104BB800310074797065202268656C7022203C632E
:104BC8006F6D6D616E643E20666F72206D6F7265E9
:104BD8002064657461696C732E00417661696C614B
:104BE800626C6520636F6D6D616E64733A00436F2C
:104BF8006D6D616E64206E6F7420666F756E642EC5
:104C08000048656C70206973206E6F74206176614E
:104C1800696C61626C6520666F72207468697320C4
:104C2800636F6D6D616E642E0048656C70206973EA
:104C380020617661696C61626C65206F6E6C7920A9
:104C4800666F7220686967682D6C6576656C20638D
:104C58006F6D6D616E64732E2049742069736E27C1
:104C68007420617661696C61626C6520666F722080
:104C7800737562636F6D6D616E64732E0000000062
:044C88000902000815
:044C8C00E501000836
:104C900009024300020100C03209040000010202BF
:104CA0000100052400100105240100010424020272
:104CB000052406000107058203080010090401000D
:104CC000020A0000000705010240000007058102FA
:104CD00040000000671E00082D1E0008C11D0008CE
:104CE00000000000391D0008271D0008911D000864
:104CF0000000000000000000000000006D1D000822
:104D0000611D0008791D0008851D00080A060002C3
:104D1000000000400100000009074300020104C038
:104D200032090400000102020100052400100105FF
:104D30002401000104240202052406000107058263
:104D4000030800FF09040100020A00000007050132
:104D500002400000070581024000000009024300F4
:104D6000020100C032090400000102020100052412
:104D7000001001052401000104240202052406009C
:104D8000010705820308001009040100020A00005F
:104D90000007050102000200070581020002000071
:104DA000AAAAAAAA00A24A04013B0008AD3A000838
:104DB000B13A0008B53A0008A53D0008B13D000829
:104DC000BD3D0008D93D0008F53D0008113E000832
:104DD0002D3E0008040309041201000202020040F3
:104DE000830440570002010203010000C84A000882
:044DF0000436002065
:0400000508000249A4
:00000001FF
